:020000040800F2
:1000000068680020E9020008FF1F0008DF1C0008E4
:10001000FD1F00081F060008A322000800000000C2
:10002000000000000000000000000000290200089D
:100030009F070008000000008502000883200008D8
:100040000303000803030008030300080303000878
:100050000303000803030008030300080303000868
:100060000303000803030008030300080303000858
:100070000303000803030008030300080303000848
:1000800003030008030300080303000839060008FF
:10009000210600082D0600080303000803030008DA
:1000A00003030008452100080303000803030008B8
:1000B000512100085D210008030300080303000824
:1000C00003030008030300080303000803030008F8
:1000D00003030008030300080303000803030008E8
:1000E00003030008030300080303000803030008D8
:1000F00003030008030300080303000803030008C8
:1001000003030008030300080303000803030008B7
:1001100003030008030300080303000803030008A7
:100120000303000803030008030300080303000897
:100130000303000800000000000000005D06000846
:1001400045060008510600080303000803030008E1
:100150000303000803030008030300080303000867
:100160000303000803030008030300080303000857
:100170000303000803030008000000000000000063
:10018000030300080303000800F002F800F03CF845
:100190000AA090E8000C82448344AAF10107DA45E2
:1001A00001D100F031F8AFF2090EBAE80F0013F0F8
:1001B000010F18BFFB1A43F001031847BC440000AD
:1001C000DC440000103A24BF78C878C1FAD852073E
:1001D00024BF30C830C144BF04680C6070470000C1
:1001E0000023002400250026103A28BF78C1FBD840
:1001F000520728BF30C148BF0B6070471FB504F0DD
:1002000011FA1FBD10B510BD00F0D0F91146FFF76F
:10021000F5FF02F0DDFD00F0EEF903B4FFF7F2FFA9
:1002200003BC00F0F5F900002C4B19680868B0E831
:10023000F04F80F30988BFF36F8F4FF0000080F319
:10024000118870470000000008480068006880F3CB
:1002500008884FF0000080F3148862B661B6BFF3DF
:100260004F8FBFF36F8F00DF00BF00BF08ED00E0CE
:10027000DFF80C00016841F470010160704700BFB5
:1002800088ED00E0EFF30980BFF36F8F134B1A681E
:100290001EF0100F08BF20ED108A20E9F04F10600B
:1002A00009B44FF0500080F31188BFF34F8FBFF3B4
:1002B0006F8F03F075FC4FF0000080F3118809BCCC
:1002C00019680868B0E8F04F1EF0100F08BFB0ECD6
:1002D000108A80F30988BFF36F8F704718000020E1
:1002E000EFF3058070470000094880470948004740
:1002F000FEE7FEE7FEE7FEE7FEE7FEE7FEE7FEE7D6
:10030000FEE7FEE704480549054A064B7047000032
:100310003521000889010008685C00206868002019
:10032000686000206860002053EA020C00F06980D9
:100330002DE9F04B4FF00006002B1FBFB3FA83F5F9
:1003400003FA05F424FA05F65E4012BF1643B2FA2A
:1003500082F502FA05F4C5F120051EBF22FA05FC5C
:1003600044EA0C04203556EA044C4FEA144418BF02
:10037000641C4FF000084FF00009904271EB030C31
:1003800039D3002919BFB1FA81F701FA07F6B0FA9B
:1003900080F700FA07F6C7F120071EBF20FA07FC16
:1003A00046EA0C062037B6FBF4FCA7EB0507103F26
:1003B00007F01F0BCBF120060CFA0BFB2CFA06F60C
:1003C00044BFB3460026202FA4BF5E464FF0000B6B
:1003D0005BEA060C08BF4FF0010B19EB0B09ABFBF6
:1003E000027C48EB0608C01B06FB02CC0BFB03CCCF
:1003F00071EB0C01C1E70B46024641464846BDE899
:10040000F08B13B54FF000004FF00001AFF3008008
:10041000BDE81C407047032A40F2308010F0030C06
:1004200000F0158011F8013BBCF1020F624498BF47
:1004300011F801CB00F8013B38BF11F8013BA2F1E4
:10044000040298BF00F801CB38BF00F8013B11F05F
:10045000030300F02580083AC0F0088051F8043BFF
:10046000083A51F804CBA0E80810F5E7121D5CBF6C
:1004700051F8043B40F8043BAFF30080D20724BF9F
:1004800011F8013B11F801CB48BF11F8012B24BF33
:1004900000F8013B00F801CB48BF00F8012B704782
:1004A00010B5203AC0F00B80B1E81850203AA0E80F
:1004B0001850B1E81850A0E81850BFF4F5AF5FEA43
:1004C000027C24BFB1E81850A0E8185044BF18C9F6
:1004D00018C0BDE810405FEA827C24BF51F8043B9D
:1004E00040F8043B08BF7047D20728BF31F8023BF1
:1004F00048BF11F8012B28BF20F8023B48BF00F885
:10050000012B704702F0FF0343EA032242EA024252
:1005100000F02CB84FF0000200B513469446964602
:10052000203922BFA0E80C50A0E80C50B1F1200106
:10053000BFF4F7AF090728BFA0E80C5048BF0CC0B4
:100540005DF804EB890028BF40F8042B08BF704712
:1005500048BF20F8022B11F0804F18BF00F8012B84
:1005600070477047704770474FF000020429C0F091
:10057000128010F0030C3FF4CFAFCCF1040CBCF1AF
:10058000020F18BF00F8012BA8BF20F8022BA1EB27
:100590000C01FFF7C1BF5FEAC17C24BF00F8012B4B
:1005A00000F8012B48BF00F8012B7047754600F09A
:1005B0002BF8AE4605006946534620F007008546F5
:1005C00018B020B5FFF79EFEBDE820404FF00006B2
:1005D0004FF000074FF000084FF0000B21F007012B
:1005E000AC46ACE8C009ACE8C009ACE8C009ACE86E
:1005F000C0098D46704710B50446AFF30080204611
:10060000BDE81040FFF709BE00487047085C0020B5
:1006100001491820ABBEFEE7260002007047FEE746
:10062000014800F03ABA0000B4000020014800F090
:1006300034BA0000B4000020014800F02EBA0000D7
:10064000B4000020014800F028BA0000DC000020BF
:10065000014800F022BA0000DC000020014800F050
:100660001CBA0000DC0000204023C36000230361AB
:1006700083604360027001757047000070B50446E6
:1006800000698CB0002839D06068142200EB80002B
:1006900004EB800168461831FFF702FF6068E168EB
:1006A000401CB0FBF1F201FB120060602069401EAB
:1006B0002061019809900298002510B1042803D008
:1006C00004E00098059001E0009806900020089052
:1006D00002980790207803AE012805D12B463246B8
:1006E00005A9074800F070F82078022805D12B46AC
:1006F000324605A9034800F067F801200CB070BD30
:10070000B4000020DC0000200FB410B50446D4E98A
:100710000301814220D8207D012804D10498C1B270
:1007200006A800F02AF8A068142200EB800004EB71
:10073000800003A91830FFF7B3FED4E90201401C82
:10074000B0FBF1F201FB1200A0602069401C2061A7
:10075000012010BC5DF814FB0020FAE730B4029CC5
:100760008160E0E80324224630BC1946FFF753BEFF
:1007700002780B7803700A70704710B500290DD00D
:1007800001290BD0002205E0835C445C8454521C98
:100790004354D2B2491EC9B28A42F5D310BD704744
:1007A00072B6FEE790F82020012A07D0022A05D071
:1007B000416A41F48021416201207047006842692A
:1007C0000A43426100207047F0B590F82050046859
:1007D000A468012D05D0022D03D0416A41F4802187
:1007E00057E014F0406F01D1E5004FD5C4F3016428
:1007F0000125A5401D608D684FF4C0739DB1CE6882
:1008000035434E6845EAC605066803EB0417F55103
:100810004FF4C275076805EB04150E697E51097D1A
:10082000012905D009E00E88CD6845EA4655EBE779
:1008300001684E5946F480764E511179D579567932
:1008400041EA056195792D0445EA062529434FF4CF
:10085000C676056806EB0416A9511178D57841EAE9
:100860000561957852782D0445EA022211434FF430
:10087000C475026805EB04155151006803EB0411BF
:10088000425842F0010242500020F0BD416A41F45A
:10089000001141620120F0BD10B590F82020012A1E
:1008A00007D0022A05D0416A41F48021416201202B
:1008B00010BD3B48D0F8002242F00102C0F80022EF
:1008C000D0F8002222F47C52C0F80022D0F8002296
:1008D0004B6A42EA0322C0F800220A7D02F01F039D
:1008E00001229A40D0F81C329343C0F81C32CB69E5
:1008F000B3B9D0F80C329343C0F80C328C894B68F2
:1009000064F31F434C6900EBC404C4F840320C8903
:100910000B6864F31F434C6900EBC404C4F8443211
:10092000CB69012B16D1D0F80C321343C0F80C322E
:100930000C884B6864F31F434C6900EBC404C4F893
:1009400040320C89CB6864F31F434C6900EBC4044C
:10095000C4F844328B69002BD0F804320ED0134314
:10096000C0F804320B69002BD0F8143208D01343BE
:10097000C0F81432096A012904D008E09343EFE774
:100980009343F5E7D0F81C121143C0F81C12D0F8BD
:10099000001221F00101C0F80012002010BD00007B
:1009A00000640040704770B590F82040012C05D0DD
:1009B000022C03D0416A41F4802128E0046809B385
:1009C0002469A40720D04FF4D874056804EB0114FF
:1009D0002D5915F00405956005682D591AD0ED08BC
:1009E000556005682C5904F00204D4604FF4DA74A1
:1009F000056804EB01142E5906F00F06082E0CD3DF
:100A000008250DE0E468DCE7416A41F40011416229
:100A1000012070BD6D0D1560E3E72D5905F00F0540
:100A2000156105682D59C5F30725956105682C5991
:100A3000240C54614FF4DC72046802EB0112A458D8
:100A40001C700468A458240A5C700468A458240C20
:100A50009C700468A258120EDA704FF4DE720468BB
:100A600002EB0112A4581C710468A458240A5C719A
:100A70000468A458240C9C710468A258120EDA7100
:100A8000006829B1016941F020010161002070BDB9
:100A9000C16841F02001C160F8E72DE9F05F05462B
:100AA000006800244669D0F804908768D0F80CB03C
:100AB000D0F810A0D0F81880F10748D0F90714D06A
:100AC00001218160B80703D5284600F062FA0CE0E6
:100AD000780702D54FF4006407E0380702D54FF4D9
:100AE000805402E0284600F053FAF80516D529682C
:100AF0004FF480708860B80503D5284600F04BFAA3
:100B00000CE0780502D544F4005407E0380502D51E
:100B100044F4804402E0284600F03CFAF80316D57D
:100B200029684FF480308860B80303D5284600F068
:100B300034FA0CE0780302D544F4004407E03803AB
:100B400002D544F4803402E0284600F025FA30074C
:100B500007D55FEACB6004D52968102044F40074FF
:100B6000C86070074FF0080707D55FEA0B7004D51F
:100B70002868C760284600F0B7F9B00706D528688E
:100B8000C068800702D0284600F0B0F9700607D58B
:100B90005FEACA6004D52968102044F480640861C3
:100BA000B00607D55FEA0A7004D5286807612846B1
:100BB00000F0D2F9F00606D528680069800702D057
:100BC000284600F0CAF9B00308D55FEAC96005D528
:100BD000296810204860284600F0C0F9F00307D5C6
:100BE0005FEA097004D528684760284600F0D6F906
:100BF000300446D55FEA497040D5F00504D55FEA78
:100C0000C87001D044F00104B00504D55FEA8870D3
:100C100001D544F00204700504D55FEA487001D59F
:100C200044F00404300529D518F0700F26D008F0E0
:100C30007000402815D006DC102809D020280AD0E2
:100C4000302816D10AE050280ED0602811D10EE0CD
:100C500044F008040DE044F010040AE044F02004DD
:100C600007E044F0400404E044F0800401E044F470
:100C700080742868816921F07001816129680420ED
:100C80004860002C05D0686A204368622846FFF758
:100C900089FEBDE8F09F70B5040003D094F82000F1
:100CA00010B104E0012070BD204600F081F82068FA
:100CB000016841F00101016000F082FA0546052655
:100CC00004E000F07DFA401B0A2811D82068406833
:100CD000C007F6D02068016821F00201016000F031
:100CE0006FFA05460BE000F06BFA401B0A2806D9A4
:100CF000606A40F40030606284F82060D2E72068C7
:100D000040688007EFD4207E0128206801683DD02C
:100D100021F080010160607E01282068016838D0E0
:100D200021F040010160A07E01282068016833D0D5
:100D300021F020010160E07E0128206801682ED0AA
:100D400041F010010160207F01282068016829D04E
:100D500021F008010160607F01282068016824D02B
:100D600021F004010160D4E902010843D4E904122E
:100D7000114308436168491E08432168C861002087
:100D80006062012084F82000002070BD41F08001E5
:100D9000C0E741F04001C5E741F02001CAE721F07A
:100DA0001001CFE741F00801D4E741F00401D9E791
:100DB000F0B587B0044614216846FFF7ABFB454BFE
:100DC0004548DFF80CE11968D4F800C0424A022413
:100DD0000326092710300025491CF44534D1196039
:100DE000012907D1016841F000710160006800F03D
:100DF00000700590106840F001001060106802ABB0
:100E000000F0010005904FF4C050CDE9000483E8E4
:100E1000D0006946314800F0D5F8002205211320A2
:100E200000F066FA132000F055FA00220521142084
:100E300000F05EFA142000F04DFA00220521152082
:100E400000F056FA15203FE0DFF894E0F4453DD17C
:100E5000D0F800C04CF0806CC0F800C0D0F800C0E2
:100E600001290CF0806CCDF814C0196007D101681D
:100E700041F000710160006800F00070059010689A
:100E800040F0020010601068694600F00200059012
:100E900060208DE8F100134800F094F8002205214D
:100EA0003F2000F025FA3F2000F014FA002205212F
:100EB000402000F01DFA402000F00CFA002205212D
:100EC000412000F015FA412000F004FA07B0F0BD0F
:100ED000006400400400002030380240000002405E
:100EE0000068004000040240704700000EB5144A3C
:100EF000016891420ED1134B134A0021FFF753FDB5
:100F000008B172B6FEE703B00E490F485DF804EB76
:100F100001F02EBB0D4A914210D10D4B0D4A00211C
:100F2000FFF741FD08B172B6FEE70A4800F1100173
:100F30000EC98DE80E000FC801F066FE0EBD000060
:100F400000640040A8000020EC5B00200068004026
:100F500098000020D04F002070477047704710B5B0
:100F6000044690F82000012805D0606A40F4002073
:100F70006062012010BD022084F820002068016812
:100F800021F00101016000F01BF90020606210BD3A
:100F90007047704770477047704770477047000050
:100FA00070B5044600F00CF90546601C02D00448F8
:100FB0000078044400F004F9401BA042FAD370BD4D
:100FC000080000202DE9F84FDFF8BCA10022012520
:100FD00003264FF00F090AF1040BAAF1040E00BF1B
:100FE0000B6805FA02F42340A34270D10F7907F091
:100FF0000307012F01D0022F16D187684FEA42085C
:1010000006FA08FC27EA0C07D1F80CC00CFA08FC19
:101010004CEA070CC0F808C04768A7430C79C4F332
:10102000001494403C4344600C79E443A4070AD084
:10103000C4684FEA420C06FA0CF7BC438F6807FA03
:101040000CF72743C7600C7904F00304022C12D17B
:10105000D40800EB840CDCF820405707FF0E09FA97
:1010600007F824EA0804D1F8108008FA07F848EADB
:101070000408CCF8208004684FEA420C06FA0CF70A
:10108000BC430F7907F0030707FA0CF72743076003
:101090004C6814F4403F70D03C4C276847F48047BC
:1010A0002760246822F0030704F480440094384C3D
:1010B00007EB040CDCF8084897074FEA177809FAA1
:1010C00008F7BC43334FB84202D1002724E054E074
:1010D000314FB84201D101271EE0304FB84201D153
:1010E000022719E02E4FB84201D1032714E02D4FFB
:1010F000B84201D104270FE02B4FB84201D1052798
:101100000AE02A4FB84201D1062705E0284FB8422D
:1011100001D1072700E0082707FA08F72743CCF892
:101120000878DAF800405746D1F804C09C435FEADB
:10113000CC2C00D51C433C60DBF800405F46D1F866
:1011400004C09C435FEA8C2C00D51C433C60DEF855
:1011500000407746D1F804C09C435FEA8C3C00D540
:101160001C433C60084F083F3C68D1F804C09C43D6
:101170005FEACC3C00D51C433C60521C102AFFF4B3
:101180002FAFBDE8F88F0000083C01404438024012
:10119000003001400000024000040240000802400C
:1011A000000C0240001002400014024000180240EF
:1011B000001C02400AB1816170470904FBE700008E
:1011C00001488068704700000800002002488168DC
:1011D0000278114481607047080000200B4810B568
:1011E000016841F400710160016841F480610160AF
:1011F000016841F480710160032000F099F80F202C
:1012000000F006F800F04AF8002010BD003C024053
:1012100030B505461C4887B00024016841F0010143
:101220000160006806A900F00100009001A800F02C
:101230002BF900F049F915494000B0FBF1F11548D0
:10124000134A491E026040F2E732C0E90324C0E9B4
:101250000114846100F07AFB040012D10D4800F003
:10126000D3FB04000DD1192000F034F8102D07D263
:1012700000222946192000F03BF80748056000E0ED
:10128000012407B0204630BD4438024040420F00E0
:1012900000000140940100200C0000200C4882B0A6
:1012A000016841F480410160006800F480400090D2
:1012B0000748001F016841F080510160006800226A
:1012C00000F0805000900F21901E02B000F010B886
:1012D00044380240002809DB00F01F020121914040
:1012E0004009800000F1E020C0F8001170470000C4
:1012F000F0B40E4B1B680C46C3F30223C3F1070581
:10130000042D00D90425191D072901D2002300E06E
:10131000DB1E012606FA05F1491E214099409E4038
:10132000761E16403143F0BC01F0DEB90CED00E052
:10133000064900F0070208684FF6FF03184040EA2C
:101340000220034A10430860704700000CED00E0E3
:101350000000FA052DE9F0470E46050065D0DFF8DC
:101360001481D8F80000F7B200F00700B04207D2AD
:1013700088F80070D8F8000000F00700B04254D19F
:1013800028683D4C810712D5400703D5206840F4FA
:10139000E05020602878000703D5206840F46040C2
:1013A00020602068A96820F0F000084320602878B9
:1013B000C0072DD0304968680839012812D00228AA
:1013C00013D0032811D00968890700292DDA216874
:1013D00021F0030101432160FFF7F2FE814641F253
:1013E000883A0EE009688903EFE709688901ECE7AC
:1013F000FFF7E6FEA0EB0901514502D90320BDE845
:10140000F0872068696800F00C00B0EB810FEFD125
:10141000D8F80010404601F00701B14207D9077023
:10142000006800F00700B04201D00120E7E728780B
:10143000400705D52068E96820F4E05008432060A3
:101440002878000706D52068296920F4604040EA22
:10145000C100206000F048F82168084AC1F3031178
:10146000515CC8400649086006480068FFF7D0FE96
:101470000020C4E7003C02400838024054460008FF
:10148000140000200C0000200F2202600C4A136898
:1014900003F003034360136803F0F00383601368F1
:1014A00003F4E053C36012684FF4E05303EAD2023E
:1014B00002610448006800F00700086070470000FF
:1014C00008380240003C02400448054900680968A9
:1014D000044AC1F34231515CC840704714000020F7
:1014E0000838024064460008154810B5006810F03E
:1014F0000C02144813D01449042A0FD0082A0ED124
:101500000F4C241F2268236802F03F025B0207D5BC
:101510002068C0F38810A0FB010106E0084610BD5A
:101520002168C1F38811A1FB00010023FEF7FCFE36
:101530002168C1F30141491C4900B0FBF1F010BD25
:10154000083802400024F40040787D012DE9F84F6E
:1015500004006ED02078DFF84C93C007A9F1040591
:101560004AD009F104000168C1F38101012908D0C2
:101570000068C0F3810002280AD1D9F800004002B7
:1015800006D52868800337D560680028E1D033E0AD
:101590006068B0F5803F10D0B0F5A02F286810D05B
:1015A00020F480302860286820F48020286060685B
:1015B000A8B1FFF705FE06460DE0286840F480302C
:1015C000F4E740F480202860F7E700BFFFF7F8FD5C
:1015D000801B642873D828688003F7D50CE0FFF7D8
:1015E000EFFD064605E000BFFFF7EAFD801B64281B
:1015F000F0D828688003F7D42078DFF8AC82800721
:101600004FF0000A3ED5A748001D016811F00C0FED
:1016100008D00068C0F3810002280BD1D9F800007F
:10162000400207D42868800716D5E068012800D159
:1016300012E033E1E068B8B10120C8F80000FFF71C
:10164000BFFD064605E000BFFFF7BAFD801B02287C
:10165000C0D828688007F7D52868216920F0F800ED
:1016600040EAC10028600DE0C8F800A0FFF7A8FD1F
:10167000064604E0FFF7A4FD801B02281FD8286857
:101680008007F7D42078000722D5864F8748616904
:10169000703771B101210160FFF792FD064604E049
:1016A000FFF78EFD801B022809D838688007F7D520
:1016B0000EE0C0F800A0FFF783FD064605E082E0DB
:1016C000FFF77EFD801B02287DD838688007F7D49D
:1016D0002078400768D5DFF8CCB100270BF13C0B30
:1016E000DBF80000C0000BD4DBF8001041F08051A3
:1016F000CBF80010DBF80000012700F080500090CC
:101700006B4E3068C00510D4306840F48070306093
:10171000FFF756FD009005E0FFF752FD0099401AD3
:10172000022850D83068C005F6D55E4EA0686C36E9
:1017300001280FD00528306810D020F0010030605B
:10174000306820F004003060A068B8B1FFF738FDC1
:1017500000900FE0306840F00100F4E740F0040032
:101760003060F7E7FFF72CFD0099411A41F288300D
:10177000814266D830688007F4D50EE0FFF720FD7F
:10178000009007E0FFF71CFD0099411A41F28830F4
:10179000814256D830688007F4D42FB1DBF80010AE
:1017A00021F08051CBF80010A069C8B33D49091D54
:1017B0000968C1F3810102294AD00228504607D0A6
:1017C000C8F8600000E03CE0FFF7FAFC04463BE0AC
:1017D0004746C8F86000FFF7F3FC064605E000BF87
:1017E000FFF7EEFC801B02282BD828688001F7D475
:1017F000D4E907010843A16A2E4A490802EB0141D6
:10180000626A41EA8211084394F82C1040EA0161AF
:10181000C9F8001001203866FFF7D2FC044606E044
:101820003EE000BFFFF7CCFC001B022809D8286867
:101830008001F7D534E000BFFFF7C2FC001B02288F
:1018400002D90320BDE8F88F28688001F4D427E08E
:101850000128F7D0D9F80000E26900F48001914234
:101860001CD1226A00F03F01914217D147F6C071A6
:10187000626A0140B1EB821F10D1A26A4FF0FF33C0
:1018800000F4403103EB5202B1EB024F06D194F861
:101890002C1000F07060B0EB016F01D00120D1E797
:1018A0000020CFE70438024000004742800E474244
:1018B000007000400000FFFF7047704770B590F85F
:1018C0003C20012A32D0012480F83C40022280F8DA
:1018D0003D2003685A689D6822F070060A6832430A
:1018E0005A60134B02689A4214D0B2F1804F11D063
:1018F000104B9A420ED0104B9A420BD00F4B9A428B
:1019000008D00F4B9A4205D00E4B9A4202D00E4B94
:101910009A4204D1496825F080031943916080F808
:101920003D40002180F83C10084670BD022070BD8B
:10193000000001400004004000080040000C00408E
:1019400000040140004001400018004010B50400B0
:1019500003D094F83D0010B107E0012010BD002035
:1019600084F83C00204600F01FF8022084F83D0077
:10197000211D206800F0F8FB012084F8460084F85F
:101980003E0084F83F0084F8400084F8410084F869
:10199000420084F8430084F8440084F8450084F849
:1019A0003D00002010BD000008B501681448B1F1E9
:1019B000804F14D0134A914220D1016841F00201B6
:1019C00001600068002200F00200009005211D2047
:1019D000FFF78EFC1D20BDE80840FFF77BBC0168C7
:1019E00041F0010101600068002200F00100009058
:1019F00005211C20FFF77CFC1C20ECE708BD000043
:101A0000403802400004004090F83D10012901D008
:101A100001207047022180F83D100168CA6842F039
:101A20000102CA6000681149884214D0B0F1804FA9
:101A300011D00F4988420ED00E4988420BD00E4972
:101A4000884208D00D49884205D00D49884202D00D
:101A50000C49884204D1816801F00701062903D0AE
:101A6000016841F001010160002070470000014061
:101A70000004004000080040000C00400004014049
:101A8000004001400018004070B5044690F83C004A
:101A90000025012817D0012684F83C60022084F834
:101AA0003D002068826822F0770222F47F42826043
:101AB0000868502838D00DDC20284FD005DC90B3C2
:101AC000102811D14AE0022070BD302846D04028AD
:101AD0000AD13BE060282FD070280DD0B0F5805F90
:101AE00003D0B0F5005F12D0012584F83D600020DE
:101AF00084F83C00284670BDCB68D1E901212068FC
:101B000000F09AFB2068816841F0770109E0CB681A
:101B1000D1E90121206800F08FFB2068816841F441
:101B200080418160E1E719E0CA684968206800F0F7
:101B300095FB5021206806E0CA684968206800F0DB
:101B40009EFB6021206800F081FBCEE7CA684968EF
:101B5000206800F083FB40212068F4E722680146FA
:101B60001046F0E770472DE9F04104460068C6686A
:101B700005694FF00007A90713D5B10711D5F91E64
:101B8000016101202077206880698007204602D00B
:101B9000FFF7E8FF04E000F07EF8204600F07CF854
:101BA0002777680716D5700714D521686FF00400F1
:101BB0000861022020772068806910F4407F204669
:101BC00002D0FFF7CFFF04E000F065F8204600F0F8
:101BD00063F82777280715D5300713D521686FF0EC
:101BE00008000861042020772068C069800720462B
:101BF00002D0FFF7B7FF04E000F04DF8204600F0F8
:101C00004BF82777E80616D5F00614D521686FF053
:101C100010000861082020772068C06910F4407F18
:101C2000204602D0FFF79EFF04E000F034F8204683
:101C300000F032F82777E80708D0F00706D02168CF
:101C40006FF001000861204600F028F8280608D54A
:101C5000300606D521686FF0800008612046FFF746
:101C60002BFE680608D5700606D521686FF0400087
:101C70000861204600F032F8A8060AD5B00608D55B
:101C800021686FF0200008612046BDE8F041FFF7B1
:101C900014BEBDE8F08170477047000010B50446DF
:101CA00000680B49884201D1FFF790FA0949206882
:101CB000884201D100F012FB2068B0F1804F06D1BC
:101CC0000548FEF7DBFCBDE8104000F0DFBD10BDAD
:101CD0000000014000040040045500207047FEE76A
:101CE00010B5214C012210212046FFF763FAC820CD
:101CF000FFF756F9002210212046FFF75BFAC820B3
:101D0000FFF74EF9012220212046FFF753FAC820A1
:101D1000FFF746F9002220212046FFF74BFAC820A2
:101D2000FFF73EF9012240212046FFF743FAC82081
:101D3000FFF736F9002240212046FFF73BFAC82082
:101D4000FFF72EF9012280212046FFF733FAC82041
:101D5000FFF726F9002280212046FFF72BFABDE885
:101D60001040C820FFF71CB90000024030B51F48E2
:101D70008BB01D49016003210024C0E901144FF418
:101D80000021C0E903414FF440114161047601256F
:101D900045768576C47604774477FEF77CFF08B1F4
:101DA000FEF7FEFC03940E200494CDE90850CDE923
:101DB0000645059400940194029469460B48FEF789
:101DC0006BFD08B1FEF7ECFC02210848FEF7EAFCC7
:101DD00008B1FEF7E5FC0548FFF7C1F8002801D07F
:101DE000FEF7DEFC0BB030BD00640040B400002004
:101DF00030B51F488BB01D49016003210024C0E9A4
:101E000001144FF40021C0E903414FF44011416136
:101E10000476012545768576C47604774477FEF707
:101E20003AFF08B1FEF7BCFC05A90F2081E831009C
:101E3000039400940194029469460D480895049413
:101E4000FEF72AFD08B1FEF7ABFC02210848FEF7B9
:101E5000A9FC08B1FEF7A4FC0548FFF780F80028AC
:101E600001D0FEF79DFC0BB030BD000000680040C3
:101E7000DC00002010B5044A0021044801F00EF8EF
:101E80000349086010BD00003046000877200008B4
:101E90000000002070B586B014216846FEF73AFBBA
:101EA0001B480024016841F080010160016801F0D5
:101EB00080010591016841F001010160016801F0B4
:101EC00001010591016841F0020101600068114EB5
:101ED00000F002004FF4DA650590002229463046F2
:101EE000FFF768F901200095CDE901046946304605
:101EF0000394FFF767F8202000904FF48810CDE995
:101F0000010469463046FFF75DF806B070BD000079
:101F1000303802400000024010B586B00024194855
:101F2000009401940294039404944FF0804105942A
:101F30000160A721C0E9011440F2E731C0E90314B0
:101F40008461FFF703FD08B1FEF72AFC4FF48050CF
:101F5000009069460B48FFF797FD08B1FEF720FC9B
:101F6000049404A907480594FFF7A8FC08B1FEF7FC
:101F700017FC0448FFF748FD002801D0FEF710FCCD
:101F800006B010BD0401002010B586B000241A4828
:101F900000940194029403940494164905940160FA
:101FA000A721C0E9011442F20F71C0E90314846152
:101FB000FFF7CCFC08B1FEF7F3FB4FF48050009024
:101FC00069460D48FFF760FD08B1FEF7E9FB049490
:101FD00004A909480594FFF771FC08B1FEF7E0FB7E
:101FE0000548FFF711FD002801D0FEF7D9FB06B028
:101FF00010BD0000000400404C010020FEE7FEE799
:10200000C1680269891A416141698269D0ED000A9B
:10201000891A00EE101A90ED011A4169B8EEC00A53
:1020200020EE200A00EE901A4169F8EEE00A01EE77
:10203000200AC2691144826990ED021A524201EBF2
:10204000420100EE901AF8EEE00A01EE200ABDEE21
:10205000C00A10EE101A01628169C1614169816193
:10206000006A704780EC030AC160002101610162CF
:102070008161C1617047FFF733FE012000F0D2FE9D
:10208000F9E710B54FF0E020006902F015F90128DA
:1020900003D0BDE8104001F043BE10BD30B593B091
:1020A00030216846FEF736FA14210CA8FEF732FA02
:1020B0001E480025016841F080510160006800F071
:1020C000805011901A48016841F480410160006815
:1020D000022400F48040119001200090000401903F
:1020E0008001CDE90640192008904FF4A870CDE991
:1020F000090404200B906846FFF728FA08B172B66D
:10210000FEE70CA90F2081E831004FF4A0500F909A
:102110004FF48050109005210CA8FFF71BF9002800
:1021200001D072B6FEE713B030BD00004038024067
:10213000007000400248016841F47001016070477E
:1021400088ED00E00148FFF70EBD0000940100207B
:102150000148FFF708BD0000040100200148FFF717
:1021600002BD00004C010020F0B50268274B284D4D
:10217000284E294F294C4FF0804C984209D0604599
:1021800007D0A84205D0B04203D0B84201D0A04247
:1021900004D122F0700E4A6842EA0E0298421BD027
:1021A000604519D0A84217D0B04215D0B84213D01C
:1021B000A04211D01A4DA8420ED01A4DA8420BD001
:1021C000194DA84208D0194DA84205D0184DA84273
:1021D00002D0184DA84203D122F44075CA682A43A0
:1021E0004D6922F080022A438D68C5620D688562C0
:1021F000984201D0A04201D109690163016841F010
:1022000004010160012141610260F0BD0000014054
:102210000004004000080040000C004000040140A1
:1022200000400140004401400048014000180040C7
:10223000001C00400020004010B5846842EA0322E0
:1022400024F47F440A432243826010BD826822F056
:1022500070020A4342F007018160704710B5036ABB
:10226000046A24F001040462846924F0F00444EA5E
:10227000021423F00A020A438461026210BD10B501
:10228000036A046A24F010040462846923F0A00342
:1022900024F4704444EA023243EA0111826101628B
:1022A00010BDFEE700B589B0401E8DF80800012082
:1022B0000022009002AB114603A8FEF74FFADDE9B9
:1022C0000601CDE900010DF10C0C03489CE80E005D
:1022D000FEF71AFA09B000BD045500202DE9F041BF
:1022E000674E00242DED028B4FF07C579FED658AE1
:1022F00004EB4400C0EB441016F82010002977D0FE
:1023000006EB80056878002874D095ED130A85EDFA
:10231000080AE87830B101280DD002281DD0032822
:102320005CD12CE02879C8B3B0EE480A601CC1B279
:10233000F0EE400A2CE02879012806D0601CC1B2DA
:10234000F0EE480AB7EE000A22E0601CC1B295ED3B
:102350000D0AF0EE480A43203EE02879022806D014
:10236000601CC1B2F0EE480AB0EE000A10E0601C3A
:10237000C1B295ED0E0AF0EE480A45202CE028790E
:1023800003280CD0601CC1B2F0EE480AB0EE080A77
:102390003D2000F05DF93D20FFF784FF1EE095F839
:1023A0005800F0B995ED0F1AD5ED0B0A31EE600A21
:1023B000B5EEC00AF1EE10FA01DC30EEC10A10EE03
:1023C000100AB8424EDD601CC1B285ED0B1AF0EE6A
:1023D000480AB0EE410A472000F03AF995F8580053
:1023E00078B3601CC0B2B2EE040A00F091F839E094
:1023F00028E0FFE72879032807D0601CC1B2F0EE7F
:10240000480AB0EE080A3D2019E095ED0F1AD5ED07
:102410000B0A31EE600AB5EEC00AF1EE10FA01DCEB
:1024200030EEC10A10EE100AB8421BDD601CC1B2CA
:1024300085ED0B1AF0EE480AB0EE410A472000F095
:1024400007F90FE006EB8000007958B1601CB0EE90
:10245000480AC1B2F0EE400A3D2000F0F9F83D20F4
:10246000FFF720FF641C042CFFF642AF5F20FFF74C
:1024700019FFBDEC028B3D20BDE8F041FFF712BF14
:102480001C5A00200000000070B500242DED048BC4
:102490002546B1EE089A1C4E9FED1C8AF0EE008A8C
:1024A000F2EE089A04EB4400C0EB441106EB810005
:1024B00000F10802C2EC038A06F821504570C5708D
:1024C00080ED0E8A80ED0F8A80ED0D8A80ED088AFE
:1024D00080F8595080F8585080F856506420FEF724
:1024E0005FFD601CC1B2F0EE480AB0EE480A5F2002
:1024F00000F0AEF83D20FFF7D5FE641C042CD1DBC4
:10250000BDEC048B70BD00001C5A002000000000D0
:1025100000EB4001C1EB4012144901EB820212F8BA
:102520001C1C002921D052ED060A70EE800A42EDF3
:10253000060A12ED051A80EE810A10EE101AB1F1AA
:102540007E5F04DB002102F81C1CB7EE000A12EDCE
:10255000031A52ED020A01460D2031EE601A41EED7
:10256000000A12ED040A00F073B870471C5A0020EC
:1025700010B500780A78082820D800EB4004C4EB96
:1025800040142F48002300EB8400DFED2E0A00F8F2
:102590001E3C522A26D012DC3C2A35D0402A3ED09E
:1025A000462A0BD1D1F8011000EE101A20EE200AB5
:1025B000DFED250A80EE201A00ED091A10BD5C2A15
:1025C00015D05E2AFAD1D1F8011040F8281C10ED80
:1025D000190A80EE801A10ED0A0A21EE000A00EDB9
:1025E0000A0A10BDD1F8011040F8301C10BDD1F816
:1025F000011040F82C1C10ED0B0ADFED140A20EE40
:10260000200A00ED0B0A10BDD1F8011000EE101ADF
:10261000BCEEC00A10EE101A00F8701C10BDD1F804
:10262000011000EE101ABCEEC00A10EE101AC9B26A
:1026300000EE101AB8EE400A00ED090A10BD0000C5
:102640001C5A00200000B4433333B34000007042F2
:1026500000B59FED211ADFED211A89B00D280DD0AC
:1026600001EB41021E4BC2EB411203EB82034528F2
:102670000ED047282DD05F2810D12AE080EE012A05
:10268000082080EEA10A8DED072A8DED080A0CE0E6
:10269000C0EE210A13ED190A20EE800A8DF81C0005
:1026A00010EE100ACDF81D0005200A46009007AB79
:1026B000002102A8FEF752F8DDE90501CDE900018D
:1026C0000DF1080C07489CE80E00FEF71DF809B054
:1026D00000BDC0EE010ADDE70000B4430000704217
:1026E0001C5A0020045500200907090E002804DBAD
:1026F00000F1E02080F80014704700F00F0000F1B6
:10270000E02080F8141D7047B0F85410B0F8742021
:10271000891AA0F85610B0F84010A0F8601090ED9B
:10272000110A80ED190A90ED120A80ED1A0A90ED57
:10273000130A80ED1B0A90ED140A80ED1C0AB0F814
:102740005410A0F87410B0F85610A0F87610816DEF
:10275000816790ED170A80ED1F0AB0F95610002925
:1027600002DDB0F9562002E0B0F956104A42816805
:10277000B2F5805F0DDDB0F95620B0F95630002B70
:1027800001DD012301E04FF0FF3303FB1122A0F82C
:102790005620826DB0F956301A44826500EE101A48
:1027A000D0ED040A816DB8EEC00A20EE200AD0ED0B
:1027B000030A60EE200A00EE101A9FED0B1AB8EE25
:1027C000C00A20EE010A80EE201A80ED121A8178EC
:1027D00011B1816DC0F8801090F8B410002901D0BB
:1027E00000F076BA704700000000B443F8B5044624
:1027F000B0F92000002802DDB4F9206002E0B4F94D
:1028000020004642A08B002308B1024600E01A4691
:102810004FF0FF35964206DDB4F92020002A00DD96
:102820000125454325846078012800D0238414487D
:10283000009308228360C0E90332042901D8910182
:1028400001E040F2FF110160207804284FEA4000C7
:1028500001D8801E00E00A38228CC0B209490A5211
:102860000844411CFDF784FF2078042801D0082883
:1028700005D16B46034A02490348FDF7A5FFF8BDA1
:10288000B8470020A0000020DC00002070B5154EE5
:10289000002500BF06EB05246078B8B1A07890B1A0
:1028A000207920B1012806D002280FD107E0204668
:1028B00000F01CFA0AE0204600F01EF906E020466F
:1028C00000F02EFA02E0204600F00EF8082D04D8A1
:1028D000681CC1B22046FFF789FF6D1CEDB2082DC0
:1028E000D8D370BDD047002000B50346D0F8800093
:1028F000C3F8C400986DC3F8C80003F1B800FFF72F
:102900007FFBC3F8E80093ED110ABDEEC00A10EE9C
:10291000100AC3F8EC0003F1DC00FFF771FB198C1F
:1029200008441884B3F920000028B3F9200000DC23
:10293000404240F6B83188420CDDB3F9200000284F
:1029400001DD012001E04FF0FF3040F6B83110FB0F
:1029500001F0188400BD00002DE9F04F4FF4007124
:102960002DED028B99B00024ADF84C10ADF850401D
:102970000821ADF84E40ADF852109FED590A41F6CE
:10298000FF718DED110AB0EE000A8DED120A109163
:1029900042F21071ADF854100794ADF8204006943F
:1029A0004FF0010B8DF82B408DF829B08DF82840A1
:1029B0008DF82AB00994ADF8224059468DF83C4074
:1029C0009FED480A8DED0B0A9FED470A4FF4FA631D
:1029D0008DED0C0A0D9340F6B833ADF83A304FF454
:1029E0007A73ADF838308DF810408DF812408DF8BC
:1029F00013408DF811408DF8141064F3070061F353
:102A00000F2064F31F4261F3174064F30F02DFF8F5
:102A1000DC8082469146002608EB062502212971BA
:102A20006C70AC700698C5F880000798C5F88400F3
:102A3000089805F1800709991822C5E9220105F1D6
:102A400090000AA9FDF72CFDC7E90AA99DF810001E
:102A500005F8B00F9DF8110068709DF81200A8707D
:102A60009DF81300E8709DF81400287145F8584C43
:102A700025F83C4C761C082ECEDB0020DFED1C8AAE
:102A80009FED1C8A5F464646451C06EB002404F178
:102A9000080025702771182210A9FDF701FDF0EE3E
:102AA000681A04F1B8000021B0EE611AF0EE480A8D
:102AB000B0EE000AFFF7D6FA04F1DC000021B0EE18
:102AC000611AF6EE000AB2EE000AFFF7CBFAE8B29E
:102AD0000828D9D319B0BDEC028BBDE8F08F0000F7
:102AE0002CA0994100009643000096C3D0470020D7
:102AF000000000000AD7A33D00B590ED0A0A90ED52
:102B0000042AD0ED031A034660EE020A90ED020A91
:102B1000B8EEC01A60EE810A9FED3A1A60EEA10A83
:102B200060EE810AFDEEE00A10EE900A986393F8D9
:102B3000910001283DD1D3ED250AF8EEC02AB8EE68
:102B4000C00A60EE820A9A6B60EEA20A60EEA10AE9
:102B500060EE810AFDEEE00A10EE900AD3ED260A3F
:102B600060EE820A20EE800A20EE210A20EE010AA1
:102B7000BDEEC00A10EE101A824202DDC3F8C40096
:102B800004E0986B884214DAC3F8C410986DC3F857
:102B9000C80003F1B800FFF733FAC3F8E80093F870
:102BA0009200F8B1D3F8E800002804DDD3F8E8106B
:102BB00004E0986BE2E7D3F8E8004142D3F89C00C8
:102BC000002801DD024600E0424291420ADDD3F8CE
:102BD000E810002901DD012101E04FF0FF31414300
:102BE000C3F8E81093ED110ABDEEC00A10EE100A0A
:102BF000C3F8EC0003F1DC00FFF702FA198C08447B
:102C0000188400BD130A363B2DE9F041A0F20121E2
:102C1000072950D8DFF8A480294FC6B2002500BF8D
:102C200007EB05242078B04242D1B8F8001049BA29
:102C3000A4F85410B8F8021049BA09B200EE101AFC
:102C4000B8EEC00A84ED110AB8F8041049BAA4F825
:102C500040101C4AE168914214D194ED110A84EDB0
:102C6000140A98F8060000EE100AB8EE400A84ED47
:102C7000170AB4F94000DFED140A00EE100AB8EEAE
:102C8000C00A07E0B4F94000DFED100A00EE100AB8
:102C9000B8EEC00A20EE200ABDEEC00A10EE100AFF
:102CA000A4F840002046FFF72FFD0020C4F8840060
:102CB0006D1C082DB4DBBDE8F081000098000020F9
:102CC000D04700202CA09941E5FF9F3A6F12833A2C
:102CD000002180F8B4109FED040A80ED120A81658E
:102CE000C0F88010704700000000000000B590EDB3
:102CF000090A0346BDEEC00A10EE100AC3F8E80048
:102D000093ED110ABDEEC00A10EE100AC3F8EC00F4
:102D100003F1DC00FFF774F9198C0844188400BD36
:102D200000B50346B0F9A000C3F8E80093ED110A1E
:102D3000BDEEC00A10EE100AC3F8EC0003F1DC008F
:102D4000FFF75EF9198C08441884B3F920000028B5
:102D500002DDB3F9202002E0B3F920004242B3F9CA
:102D6000A200002801DD014600E041428A420ADD5E
:102D7000B3F92010002901DD012101E04FF0FF31FE
:102D800011FB00F01884B3F95600002802DDB3F9F6
:102D9000561002E0B3F95600414200200F2913DA21
:102DA000B3F888104A1CA3F8882064290ED9A3F828
:102DB000880083F8B000012183F8B110987018469C
:102DC0005DF804EBFFF784BFA3F8880000BD0000A6
:102DD000FEF704FAFFF762F9FFF75CF8FEF7C6FFAB
:102DE000FFF706F8FFF798F8FFF7CEF80A4C022233
:102DF0000A482178FDF738FC012221780848FDF7C0
:102E000033FCFFF741FBFFF7A7FD00F019F8FFF7D0
:102E100031F800F027F8FEE7B0000020EC4F00206A
:102E20000455002010B5EFF3058111B16FF00504D2
:102E300003E0002408B100F0FFFD204610BD0000B3
:102E4000EFF3058010B16FF005007047044801688A
:102E500011B14FF0FF307047012101600020704731
:102E60006800002010B5EFF3058010B16FF0050089
:102E700010BD08480168012902D04FF0FF3010BD95
:102E8000054A002182F8141D0221016000F03CFE79
:102E9000002010BD680000200BE000E02DE9FF419C
:102EA0004FEA01034FF00005EFF30581039549BB9D
:102EB00040B34027182100244AB3166806B13446AF
:102EC00096691EB13146761E382E02D21679F60763
:102ED00003D0002004B0BDE8F081566906B1B70800
:102EE000D2F808C0BCF1000F0DD0D568602D18D302
:102EF00012693AB136B18DE806103A46214601F022
:102F0000B0F903900DE0D6685EB912694AB903AA18
:102F1000CDE90012BAB2214601F076F9012800D0BD
:102F200003950398D6E700002DE9F041134C0F46B6
:102F30000546E6682068001D00F04AFC681C07D1C1
:102F400037B12168BDE8F0410D48091D00F090BC83
:102F500020683544B5424560216805D2A06BBDE8C4
:102F6000F041091D00F06CBC606B091D00F068FCAD
:102F7000A06A854200D2A562BDE8F0811800002059
:102F8000CC0600202DE9F041054600F07DFC2D4CDB
:102F9000A068401CA06020682B4F10B1606930B35E
:102FA0002BE02560A068012827D1002606EB8600CB
:102FB00007EB800000F036FC761C382EF6D3234851
:102FC00000F030FC2148143000F02CFC1F48283061
:102FD00000F028FC1D483C3000F024FC1B48503019
:102FE00000F020FC194860631430A06305E02068FD
:102FF000E96AC06A884200D82560606A401C606245
:10300000A864E86A2169884200D9206100EB800049
:1030100007EB8000291D00F02BFC00F055FC6069D7
:1030200000280CD02068E96AC06A884207D20849A3
:103030004FF080500860BFF34F8FBFF36F8FBDE834
:10304000F0810000180000201C0200207C060020F7
:1030500004ED00E038B500F017FC104C2068C8B94A
:103060000F4800F0DFFB0E48143000F0DBFB0C488B
:10307000E060143020610A4B0020F03B009003F127
:10308000500210210A2000F061FE206010B105A15D
:1030900000F09CFCBDE8384000F016BC5400002055
:1030A000D0070020546D72510000000030B4026C53
:1030B0000B46002A0BD0C1681144C1608468A1424C
:1030C00001D30168C16030BC1846FDF7A4B930BC1B
:1030D00070472DE9F041856B174604460026026CC7
:1030E00082B1C7B1E068FDF796F9E168206C091A72
:1030F000E1602268914202D2A168081AE060022FC2
:1031000016D017E02068A8B9A06801F04DF906466E
:103110000020A0600EE06068FDF77DF9216C60681A
:1031200008446060A168884204D32068606001E0C0
:1031300005B16D1E6D1CA5633046BDE8F08110B56C
:10314000044690F85D0058B101280CD002280FD039
:10315000502080F31188BFF34F8FBFF36F8FFEE7CE
:10316000206B00F0C5FB2046BDE8104000F0C0BB5E
:1031700010BD000010484FF47051420706D0C01D2A
:103180000D4920F00700411AC1F570510B4A002388
:103190000144C2E900030839183A21F0070111601F
:1031A0004B600B600B1AC0E9001393604FF00040B6
:1031B0005360506170470000B80B0020840000206D
:1031C000144E154CA6F29C474FF08058DFF84C90F7
:1031D00012E000BF00F058FBF068C568281D00F041
:1031E000F7FAA068401EA0606068401E606000F0B2
:1031F0006BFB2846FFF7A3FF60680028EAD1386818
:103200000128F9D9C9F80080BFF34F8FBFF36F8F42
:10321000F2E70000B80600201800002004ED00E0EE
:1032200070B51D46049C51B1C4F80020C4E90F01DB
:103230000121204600F0BEFD84F84C5070BD246092
:10324000F4E700002DE9F05F8846DDE90B941546B0
:10325000834691009A460A9EA522206BFDF752F9FB
:103260006FF00301206B01EB8501084420F0070794
:10327000780707D0502080F31188BFF34F8FBFF33A
:103280006F8FFEE70025B8F1000F0FD05FF0000050
:10329000221818F8001082F8341018F8001011B134
:1032A000401C1428F4D384F8475001E084F83450CB
:1032B000382E00D33726E662C4E91465201D00F0DD
:1032C000BCFA04F1180000F0B8FA2461C6F1380025
:1032D0006462A061A56584F85C5052465946384640
:1032E00000F060FA2060B9F1000F01D0C9F8004089
:1032F000BDE8F09F30B5114900E011460A688242EE
:10330000FBD34B685C18844203D140681844486082
:10331000084643681C18944209D1084C183C24689C
:10332000A24209D052681A4442600A6812680260D8
:10333000814200D0086030BD0460F9E784000020BD
:1033400070B5002441600B4D0061914206D8D11A3E
:103350008269914206D2011D286907E09A4203D290
:10336000994201D3012403E0011DE86800F068FAE6
:10337000204670BD5400002010B5044600F084FAC9
:10338000A06B28B15FF0000400F09EFA204610BD4B
:103390000124F9E730B589B03C4D6EE0049800286F
:1033A00006DADDE90601059A90470498002864DBF7
:1033B000069C606910B1201D00F00AFA03A800F015
:1033C000D7F8024604980A2857D2DFE800F005052E
:1033D000052D334A05052D3394F8280040F00100EF
:1033E00084F828000599A069059B01442046FFF751
:1033F000A7FF68B3216A2046884794F82800400751
:103400003BD5002000900598A16900234218194679
:10341000204601F0D3F8D8B9502080F31188BFF3CB
:103420004F8FBFF36F8FFEE714F8280F20F00100D5
:10343000207022E094F8280040F0010084F8280071
:103440000598A06128B1811813462046FFF778FF40
:1034500013E0502080F31188BFF34F8FBFF36F8FBD
:10346000FEE794F82800810703D4204600F040FAD4
:1034700003E020F0010084F82800002204A9286855
:1034800000F0ECFD002889D109B030BD54000020C7
:103490002DE9FC410F46054600F07AFB01A800F03B
:1034A00067F80446019818B100F0F6FFBDE8FC810A
:1034B000254EAFB130690068D0B30027291B3A46CA
:1034C000306800F097FA00F0E7FF0028EED11F49BE
:1034D0004FF080500860BFF34F8FBFF36F8FE5E769
:1034E000A542EBD800F0D8FFF0682746C068C46852
:1034F000201D00F06DF994F82800410719D5A06946
:103500002B4641193A462046FFF71AFFA8B1002082
:103510000346014600902A46204601F04FF860B964
:10352000502080F31188BFF34F8FBFF36F8FFEE7FA
:1035300007E020F0010084F82800216A204688472F
:10354000B4E70127BAE700005400002004ED00E0D2
:103550000648416B096829B1416BC968C968496867
:10356000816270474FF0FF31FAE700001800002039
:1035700070B5054600F0AEFE064E0446B0688442C3
:1035800003D200F009F8012000E000202860204666
:10359000B46070BD54000020F8B5194D20E0C0683B
:1035A000C4680668201D00F013F9216A2046884788
:1035B00094F82800400713D5A0693044B04206D9DA
:1035C00024616060211DE86800F03AF908E00020FD
:1035D0000346014600903246204600F0EFFF38B126
:1035E000E86801680029DAD12969C5E90310F8BD46
:1035F000502080F31188BFF34F8FBFF36F8FFEE72A
:103600005400002008484068401C4FF0500080F3F0
:10361000118804D0BFF34F8FBFF36F8FFEE7BFF366
:103620004F8FBFF36F8FFEE78C000020074CE068E0
:10363000016841B1C0680021D0F80000FFF728FF01
:10364000FFF7A8FEF3E701210020F7E75400002070
:103650002DE9F041044600F017F994F9455004F1C2
:10366000240609E0606A48B1304600F0DDFE08B18A
:1036700000F010FA6D1E6DB2002DF3DC4FF0FF3636
:1036800084F8456000F020F900F0FEF894F9445009
:1036900004F1100709E0206948B1384600F0C4FE83
:1036A00008B100F0F7F96D1E6DB2002DF3DC84F85F
:1036B0004460BDE8F04100F007B900002DE9F04199
:1036C0000546002700F064FA354E306808B9FFF768
:1036D00051FD7069054216D1ADB1083568070ED0AD
:1036E00005F00700C0F108000544680707D0502026
:1036F00080F31188BFF34F8FBFF36F8FFEE715B1D3
:103700007068854202D900F0C7FE39E024481830BD
:1037100001460C6801E020460C466168A94202D2CD
:1037200021680029F7D131688C42ECD00768216804
:10373000016060680837411B10290ED960194207E3
:1037400007D0502080F31188BFF34F8FBFF36F8FE6
:10375000FEE741606560FFF7CDFD61687068401A63
:103760007060B268904200D2B0607069014300207E
:10377000C4E90001F068401CF06000F08DFE0FB954
:1037800000F04EF8780707D0502080F31188BFF37F
:103790004F8FBFF36F8FFEE73846BDE8F081000022
:1037A0006C00002010B5031F4FF080741C601B1FBD
:1037B00021F001011960191F044B0B6014390A60D4
:1037C000091F6FF0020244380A6010BD0536000878
:1037D000D0E9013201699A60D0E901235A604A6850
:1037E000824201D182684A60002202610868401E5C
:1037F0000860086870470000034B036003F1600035
:103800000860402010607047F8070020034B0360F9
:1038100003F16000086080201060704758090020A4
:103820007047704700F108014FF0FF32C0E9011204
:10383000C160016100210160704700210161704792
:1038400030B50B685A1C02D000F1080202E0026990
:1038500004E02246546825689D42FAD953684B60BB
:1038600099608A60516008610168491C016030BD3F
:1038700042684A6093688B60936859609160086100
:103880000168491C01607047502080F31188BFF324
:103890004F8FBFF36F8F0A494868401C486001286A
:1038A0000CD10848006810F0FF0F07D0502080F3BB
:1038B0001188BFF34F8FBFF36F8FFEE77047000093
:1038C0008C00002004ED00E00849486828B1401E43
:1038D000486001D180F311887047502080F311882F
:1038E000BFF34F8FBFF36F8FFEE700008C00002007
:1038F00070B500282AD0164DA0F1080460686969E7
:10390000084207D1502080F31188BFF34F8FBFF3D7
:103910006F8FFEE722683AB1502080F31188BFF321
:103920004F8FBFF36F8FFEE78843606000F030F980
:1039300060686968084468602046FFF7DBFC286916
:10394000401C2861BDE8704000F0A6BD70BD0000BD
:103950006C0000204FF0E0200021016181610549E9
:103960004FF47A720968B1FBF2F1491E41610721F7
:10397000016170471400002010B5FCF7B1FC11493B
:1039800010280ED300F1E02090F8F0030A7890425E
:1039900007D2502080F31188BFF34F8FBFF36F8F92
:1039A000FEE709480068896800F4E060884207D9AA
:1039B000502080F31188BFF34F8FBFF36F8FFEE766
:1039C00010BD00008C0000200CED00E010B5084B8D
:1039D000002200BF53F832401CB1521C082AF9D310
:1039E00010BD43F8321003EBC201486010BD000067
:1039F000DC01002070B515460E460446FFF744FF73
:103A000094F944100020491C01D184F8440094F931
:103A10004510491C01D184F84500FFF755FFA06B04
:103A200028B92A46314604F1240000F051F8204616
:103A3000BDE87040FFF70CBE10B5020014D00F486F
:103A4000006B38B1502080F31188BFF34F8FBFF364
:103A50006F8FFEE700F09CF800211046FFF764FA34
:103A600000F01AFD002807D105494FF0805008608A
:103A7000BFF34F8FBFF36F8F10BD00001800002001
:103A800004ED00E002490A6A0260C96841607047BB
:103A90001800002001490120C8617047180000206B
:103AA00010B50C4650B1094909681831FFF7C8FE36
:103AB0002046BDE810400121FFF736BA502080F3C0
:103AC0001188BFF34F8FBFF36F8FFEE71800002000
:103AD00070B514460D4668B10A4909681831FFF7F8
:103AE000C7FE0CB14FF0FF3521462846BDE87040B7
:103AF000FFF71ABA502080F31188BFF34F8FBFF33E
:103B00006F8FFEE71800002030B587B000240394C3
:103B100005AA04A903A80494FFF76EFEDDE90301DA
:103B20000094CDE90110002315A11748059A00F073
:103B300098FB164D0028E8621FD000F00FFD012809
:103B400009D0401C19D1502080F31188BFF34F8F4A
:103B5000BFF36F8FFEE7502080F31188BFF34F8FC4
:103B6000BFF36F8F4FF0FF30A86201206861EC60F7
:103B700007B0BDE8304000F059B807B030BD0000D4
:103B800049444C4500000000C131000818000020E5
:103B90000248016B491C01637047000018000020B7
:103BA00010B5204C206B10B10120E06110BD002049
:103BB000E06120684FF0A531006B02688A4208D1AD
:103BC00042688A4205D182688A4202D1C06888422E
:103BD00004D0216820683431FFF723FE20691249A0
:103BE00001E0B8B1401E00EB800251F82220002A0B
:103BF000F7D000EB800201EB820101F108034A6873
:103C000052684A609A4201D152684A60D168216084
:103C1000206110BD502080F31188BFF34F8FBFF398
:103C20006F8FFEE7180000201C0200201CB53748EB
:103C30000168374A914207D1502080F31188BFF3C1
:103C40004F8FBFF36F8FFEE700683149491E8842EE
:103C500007D1502080F31188BFF34F8FBFF36F8FD0
:103C6000FEE72C4908780190FF20087008788DF84D
:103C700000009DF800009DF8002000F0F000904248
:103C800007D0502080F31188BFF34F8FBFF36F8FA1
:103C9000FEE79DF80000204C00F050002070072047
:103CA000A06005E09DF8002052008DF80020401E25
:103CB0009DF800201206F5D4A060032807D05020FC
:103CC00080F31188BFF34F8FBFF36F8FFEE74FF480
:103CD0004070A060019808700C482030016841F4E1
:103CE00070010160016841F070410160FFF732FE30
:103CF00000206060FCF7BCFA0848016841F04041D0
:103D00000160FCF7A1FA00201CBD000000ED00E0FE
:103D100071C20F4100E400E08C00002034EF00E0AD
:103D200010B5502080F31188BFF34F8FBFF36F8F12
:103D300000F0D6FA18B104494FF080500860002016
:103D400080F3118810BD000004ED00E038B5049D3B
:103D500018B153B1CAB181B120E0502080F311886D
:103D6000BFF34F8FBFF36F8FFEE7502080F31188B2
:103D7000BFF34F8FBFF36F8FFEE7502080F31188A2
:103D8000BFF34F8FBFF36F8FFEE739B1502080F341
:103D90001188BFF34F8FBFF36F8FFEE750241C468F
:103DA000012384F846302B460094FFF739FA204669
:103DB00038BD000070B50D46040025D0FFF764FD46
:103DC000D4E90F20216802FB0011A1600021A1634A
:103DD000216861600A46D4E90F01401E00FB012101
:103DE000E16021464FF0FF3001F8440F487004F1C4
:103DF00010008DB1FFF716FD04F12400FFF712FD4E
:103E0000FFF762FD012070BD502080F31188BFF3E1
:103E10004F8FBFF36F8FFEE721690029F0D000F0CC
:103E200003FB0028ECD004494FF080500860BFF33A
:103E30004F8FBFF36F8FE3E704ED00E02DE9FF47FD
:103E400082B01D468A464FF00008040003D0BAF144
:103E5000000F08D011E0502080F31188BFF34F8F7E
:103E6000BFF36F8FFEE7206C38B1502080F31188CC
:103E7000BFF34F8FBFF36F8FFEE7022D0AD1E06BC8
:103E8000012807D0502080F31188BFF34F8FBFF374
:103E90006F8FFEE700F010FA3F4F4FF000094FF030
:103EA000805648B9049838B1502080F31188BFF388
:103EB0004F8FBFF36F8FFEE7FFF7E6FCA06BE16B60
:103EC000884207D3022D05D00498D0B1B8F1000F75
:103ED0001AD01EE02A4651462046FFF7FAF8616ADA
:103EE00019B104F1240000F09FFA20B13E60BFF345
:103EF0004F8FBFF36F8FFFF7E7FC012006B0BDE8DF
:103F0000F087FFF7E1FC22E06846FFF7BBFD4FF0CA
:103F10000108FFF7D9FCFFF73BFEFFF7B5FC94F96A
:103F20004400401C01D184F8449094F94500401CA1
:103F300001D184F84590FFF7C7FC04A9684600F05A
:103F400029F930B12046FFF783FB00F0A5FA0020E5
:103F5000D4E7FFF799FCA06BE16B884213D1FFF720
:103F6000B3FC04F110000499FFF79AFD2046FFF717
:103F70006FFB00F091FA00289ED13E60BFF34F8F97
:103F8000BFF36F8F98E7FFF79FFC2046FFF760FBBA
:103F900000F082FA90E7000004ED00E02DE9F04720
:103FA0001F4690468946040003D0B9F1000F08D09F
:103FB00011E0502080F31188BFF34F8FBFF36F8F54
:103FC000FEE7206C38B1502080F31188BFF34F8F8B
:103FD000BFF36F8FFEE7022F0AD1E06B012807D0F5
:103FE000502080F31188BFF34F8FBFF36F8FFEE730
:103FF000FFF7C2FC5020EFF3118680F31188BFF366
:104000004F8FBFF36F8FA06BE16B884206D3022FF7
:1040100004D0002086F31188BDE8F08794F945505C
:10402000A06B3A4649462046FFF753F8681C04D077
:104030006D1C84F845500120ECE7606A0028FAD036
:1040400004F1240000F0F0F90028F4D0B8F1000FDA
:10405000F1D00121C8F80010EDE700002DE9F74785
:10406000002683B08A46040003D0BAF1000F08D0BE
:1040700011E0502080F31188BFF34F8FBFF36F8F93
:10408000FEE7206C38B1502080F31188BFF34F8FCA
:10409000BFF36F8FFEE700F00FF9DFF8F4804FF009
:1040A00000094FF0805748B9059838B1502080F387
:1040B0001188BFF34F8FBFF36F8FFEE7FFF7E4FB6D
:1040C000A56BC5B151462046FEF7F0FF6D1EA563F6
:1040D000206950B104F1100000F0A6F928B1C8F829
:1040E0000070BFF34F8FBFF36F8FFFF7EDFB012021
:1040F00006B0BDE8F087059808B11EB106E0FFF7ED
:10410000E3FB27E06846FFF7BDFC0126FFF7DCFB79
:10411000FFF73EFDFFF7B8FB94F94400401C01D1C6
:1041200084F8449094F94500401C01D184F84590EE
:10413000FFF7CAFB05A9684600F02CF800282046C6
:104140000AD0FFF785FA00F0A7F92046FFF714F927
:104150000028B3D00020CBE7FFF70EF990B104F1AF
:1041600024000599FFF79CFC2046FFF771FA00F048
:1041700093F90028A2D1C8F80070BFF34F8FBFF3A6
:104180006F8F9BE72046FFF763FA00F085F995E70C
:1041900004ED00E02DE9F0410C46050011D0C4B15A
:1041A000FFF772FB174BDA686E682068911B471C9B
:1041B00017D02F681B6A9F4219D0964217D8012446
:1041C00010E0502080F31188BFF34F8FBFF36F8F43
:1041D000FEE7502080F31188BFF34F8FBFF36F8F3E
:1041E000FEE70024FFF770FB2046BDE8F08188421F
:1041F00005D9401A20602846FFF744FCF1E700206B
:104200002060DCE7180000202DE9FF5F8346DDE930
:104210000E87994616468A469000FFF74FFA05002A
:104220001CD06020FFF74AFA040014D00020256358
:1042300084F85D00CDE90240CDE900874B46324667
:1042400051465846FEF7FEFF2046FEF79BFE012032
:1042500004B0BDE8F09F2846FFF74AFB4FF0FF305F
:10426000F6E7F0B585B0DDE90B640A9DA6B1DCB1D7
:10427000602700972663022684F85D60002604AF5D
:10428000CDE90246CDE90057FEF7DCFF2046FEF7F8
:1042900079FE049805B0F0BD502080F31188BFF37B
:1042A0004F8FBFF36F8FFEE7502080F31188BFF36D
:1042B0004F8FBFF36F8FFEE70548416919B1006B5F
:1042C00018B100207047012070470220704700009D
:1042D000180000200148C068704700001800002046
:1042E0002DE9F0412E4C0027206B28B1A069401C1D
:1042F000A0613846BDE8F081E668761CE66013D11F
:10430000606B006838B1502080F31188BFF34F8F85
:10431000BFF36F8FFEE7606BA16B6163A063206AE0
:10432000401C2062FFF714F9A06ADFF8788086420B
:1043300009D3606B0068A0B1606BC068C56868682D
:10434000864211D2A0622068C06A00EB800158F852
:104350002100012800D90127E0690028C9D00127E0
:10436000C7E74FF0FF30EDE7281DFFF731FAA86AE5
:1043700018B105F11800FFF72BFAE86A21698842A5
:1043800000D9206100EB800108EB8100291DFFF7B7
:104390006FFAE86A2168C96A8842CAD30127C8E768
:1043A000180000201C02002070B504004FF000012E
:1043B00033D01B4D2868844207D0502080F31188E9
:1043C000BFF34F8FBFF36F8FFEE7606D38B1401EB4
:1043D0006065236DE26A9A421FD040B11DE0502013
:1043E00080F31188BFF34F8FBFF36F8FFEE7201D5F
:1043F000FFF7EEF9206DE062C0F13800A061E06ADD
:104400002969884200D92861064900EB800001EB48
:104410008000211DFFF72CFA0121084670BD000025
:10442000180000201C02002070B5C068C46854B198
:1044300004F118000646FFF7CBF9144D286B50B174
:104440003146134815E0502080F31188BFF34F8F99
:10445000BFF36F8FFEE7201DFFF7BAF9E06A296905
:10446000884200D928610B4900EB800001EB8000F5
:10447000211DFFF7FDF9E06A2968C96A884202D95F
:104480000120E86170BD002070BD00001800002010
:10449000A40600201C0200202DE9F0472C4D00242A
:1044A0002746286B38B1FFF7EFF9286B401E2863C9
:1044B000286B40B146E0502080F31188BFF34F8F46
:1044C000BFF36F8FFEE7A968224E0120D1B3A6F596
:1044D000916980463068E0B1F068C46804F1180062
:1044E000FFF776F9201DFFF773F9E06A2969884222
:1044F00000D9286100EB800109EB8100211DFFF745
:10450000B7F9E06A2968C96A8842E3D3C5F81C8014
:10451000E0E70CB1FFF71CF8AC694CB14FEA0806B4
:10452000FFF7DEFE00B1EE61641EF9D10020A86144
:10453000E86938B10849012738070860BFF34F8F91
:10454000BFF36F8FFFF7C0F93846BDE8F087000072
:1045500018000020A406002004ED00E010B586B08D
:10456000FEF778FD114C2068B8B10020039004904C
:1045700005AA04A903A8FFF749F9DDE903210220F0
:104580008DE8070000230AA10B48059AFFF769FE92
:10459000606010B106B0012010BD502080F311887A
:1045A000BFF34F8FBFF36F8FFEE700005400002072
:1045B000546D7220537663002D3600082DE9FF41BB
:1045C0001E46134602000A9D4FF0000016D0144C00
:1045D0002768002F0FD0CDE900130292062917DAC1
:1045E000FFF76AFE02284FF000030FD00022694651
:1045F0002068FFF723FC04B0BDE8F081502080F371
:104600001188BFF34F8FBFF36F8FFEE72A46EEE7A7
:104610000023324669463846FFF7C0FCEBE700004E
:10462000540000204FF04070E1EE100A7047000087
:104630006C460008000000000000000000000000C0
:104640000000000000020000180000000000000050
:104650000000000000000000000000000102030450
:104660000607080900000000010203046465666192
:10467000756C745461736B0098460008000000204C
:10468000B4000000C40100084C470008B40000203A
:10469000B4670000E0010008000000000000000016
:1046A0000100000010000000000000000024F400E1
:1046B00000000000000000000000000000000000FA
:1046C00000000000000000000000000000000000EA
:1046D00000000000000000000000000000000000DA
:1046E00000000000000000000000000000000000CA
:1046F00000000000000000000000000000000000BA
:1047000000000000000000000000000000000000A9
:104710000000000000000000000000000000000099
:104720000000000000000000AAAAAAAA00000000E1
:104730000000000000000000000000000000000079
:0C4740000000000000000000000000006D
:040000050800018965
:00000001FF
